{
  "contractName": "SimpleStorage",
  "abi": [
    {
      "inputs": [
        {
          "name": "s",
          "type": "uint256"
        }
      ],
      "payable": false,
      "stateMutability": "nonpayable",
      "type": "constructor"
    },
    {
      "anonymous": false,
      "inputs": [
        {
          "indexed": false,
          "name": "message",
          "type": "string"
        },
        {
          "indexed": false,
          "name": "newVal",
          "type": "uint256"
        }
      ],
      "name": "Change",
      "type": "event"
    },
    {
      "constant": true,
      "inputs": [],
      "name": "balanceOf",
      "outputs": [
        {
          "name": "",
          "type": "uint256"
        }
      ],
      "payable": false,
      "stateMutability": "view",
      "type": "function"
    },
    {
      "constant": false,
      "inputs": [
        {
          "name": "x",
          "type": "uint256"
        }
      ],
      "name": "set",
      "outputs": [],
      "payable": false,
      "stateMutability": "nonpayable",
      "type": "function"
    },
    {
      "constant": true,
      "inputs": [],
      "name": "get",
      "outputs": [
        {
          "name": "",
          "type": "uint256"
        }
      ],
      "payable": false,
      "stateMutability": "view",
      "type": "function"
    }
  ],
  "bytecode": "0x608060405234801561001057600080fd5b506040516020806102b2833981018060405281019080805190602001909291905050508060008190555033600160006101000a81548173ffffffffffffffffffffffffffffffffffffffff021916908373ffffffffffffffffffffffffffffffffffffffff160217905550506102278061008b6000396000f300608060405260043610610057576000357c0100000000000000000000000000000000000000000000000000000000900463ffffffff16806360fe47b11461005c5780636d4ce63c14610089578063722713f7146100b4575b600080fd5b34801561006857600080fd5b50610087600480360381019080803590602001909291905050506100df565b005b34801561009557600080fd5b5061009e6101d3565b6040518082815260200191505060405180910390f35b3480156100c057600080fd5b506100c96101dc565b6040518082815260200191505060405180910390f35b6298968081101515610159576040517f08c379a00000000000000000000000000000000000000000000000000000000081526004018080602001828103825260188152602001807f53686f756c64206265206c657373207468616e2031303030000000000000000081525060200191505060405180910390fd5b806000819055507fbb1cb5be1009ed69d54a8f3da20ed253be50c4dbbcade4f0a12114dedd9be5d7816040518080602001838152602001828103825260038152602001807f73657400000000000000000000000000000000000000000000000000000000008152506020019250505060405180910390a150565b60008054905090565b60003073ffffffffffffffffffffffffffffffffffffffff16319050905600a165627a7a723058200aa3b7979047584b64add4007cbee6a0861b50d7ef8b9f48217866197e8306e30029",
  "source": "pragma solidity >=0.4.21 <0.8.5;\r\n\r\n\r\ncontract SimpleStorage {\r\n    uint256 storedData;\r\n    address private owner;\r\n    uint256 balance;\r\n\r\n    //event Change(string message, uint indexed newVal);\r\n    event Change(string message, uint256 newVal);\r\n\r\n    constructor(uint256 s) public {\r\n        storedData = s;\r\n        owner = msg.sender;\r\n    }\r\n\r\n    \r\n    function balanceOf( ) public view returns(uint256) {\r\n        return address(this).balance;\r\n    }\r\n\r\n    \r\n\r\n    function set(uint256 x) public {\r\n        require(x < 10000000, \"Should be less than 1000\");\r\n        storedData = x;\r\n        emit Change(\"set\", x);\r\n    }\r\n\r\n    function get() public view returns (uint256) {\r\n        return storedData;\r\n    }\r\n\r\n    \r\n    \r\n   \r\n}\r\n",
  "sourcePath": "C:\\Users\\ASUS\\Desktop\\VSCodeProject\\project21\\contracts\\SimpleStorage.sol",
  "compiler": {
    "name": "solc",
    "version": "0.4.25+commit.59dbf8f1.Emscripten.clang"
  },
  "schemaVersion": "2.0.2",
  "updatedAt": "2021-06-02T09:25:02.196Z"
}